:030000000213E305
:0100030032CA
:03000B000213E6F7
:0100130032BA
:03001B000213E9E4
:0100230032AA
:10002B000213EC75383E753900753701D2A91200F1
:10003B0057C2A912005EC3E53E9401F53EE53F941D
:10004B0000F53FB541DDE53EB540D822120065D540
:10005B0037FA2220270312006522EBF879467AFA49
:10006B00302806DAFED9F7D8F32220E80A20E90C6B
:10007B00120D612028F42212093580F712009180AD
:10008B00F2120D6180EDC2277B1875381D7539FC96
:10009B00753A8A753BFC753704D2A9D2AB1200575F
:1000AB00C2A9C2AB12005E75381D7539FC753A8A50
:1000BB00753BFC753704D2A9D2AB120057C2A9C24B
:1000CB00AB12005E75381D7539FC753A8A753BFCB1
:1000DB00753704D2A9D2AB120057C2A9C2AB12001A
:1000EB005E75381D7539FC753A8A753BFC7537049E
:1000FB00D2A9D2AB120057C2A9C2AB12005E75389F
:10010B001D7539FC753A8A753BFC753704D2A9D23B
:10011B00AB120057C2A9C2AB12005E75381D753900
:10012B00FC753A8A753BFC753704D2A9D2AB120029
:10013B0057C2A9C2AB12005E7538E27539FB753A2E
:10014B008A753BFC753704D2A9D2AB120057C2A9F2
:10015B00C2AB12005E7538E27539FB753A8A753B96
:10016B00FC753704D2A9D2AB120057C2A9C2AB128D
:10017B00005E7538E27539FB753A8A753BFC75374D
:10018B0004D2A9D2AB120057C2A9C2AB12005E7542
:10019B0038E27539FB753A8A753BFC753704D2A981
:1001AB00D2AB120057C2A9C2AB12005E7538E27512
:1001BB0039FB753A8A753BFC753704D2A9D2AB1261
:1001CB000057C2A9C2AB12005E7538E27539FB75D8
:1001DB003A8A753BFC753704D2A9D2AB120057C2D1
:1001EB00A9C2AB12005E7538D07539FA753A4075F5
:1001FB003BFD753704D2A9D2AB120057C2A9C2ABD3
:10020B0012005E7538D07539FA753A40753BFD753D
:10021B003704D2A9D2AB120057C2A9C2AB12005EEF
:10022B007538D07539FA753A40753BFD753704D280
:10023B00A9D2AB120057C2A9C2AB12005E7538D05F
:10024B007539FA753A40753BFD753704D2A9D2ABB7
:10025B00120057C2A9C2AB12005E7538E27539FBAA
:10026B00753AEA753BFC753704D2A9D2AB1200572D
:10027B00C2A9C2AB12005E7538617539FB753A4085
:10028B00753BFD753704D2A9D2AB120057C2A9C278
:10029B00AB12005E7538D07539FA753A68753BFD4F
:1002AB00753708D2A9D2AB120057C2A9C2AB120044
:1002BB005E7538D07539FA753A68753BFD7537043C
:1002CB00D2A9D2AB120057C2A9C2AB12005E7538CD
:1002DB00D07539FA753A68753BFD753704D2A9D2DA
:1002EB00AB120057C2A9C2AB12005E7538617539EB
:1002FB00FB753A40753BFD753704D2A9D2AB1200A2
:10030B0057C2A9C2AB12005E7538E27539FB753A5C
:10031B00EA753BFC753704D2A9D2AB120057C2A9C0
:10032B00C2AB12005E75381D7539FC753A8A753B88
:10033B00FC753704D2A9D2AB120057C2A9C2AB12BB
:10034B00005E75381D7539FC753A8A753BFC75373F
:10035B0004D2A9D2AB120057C2A9C2AB12005E7570
:10036B00381D7539FC753A8A753BFC753704D2A973
:10037B00D2AB120057C2A9C2AB12005E75381D7505
:10038B0039FC753A8A753BFC753704D2A9D2AB128E
:10039B000057C2A9C2AB12005E75381D7539FC75CA
:1003AB003A8A753BFC753704D2A9D2AB120057C2FF
:1003BB00A9C2AB12005E75381D7539FC753A8A758A
:1003CB003BFC753704D2A9D2AB120057C2A9C2AB02
:1003DB0012005E7538E27539FB753A8A753BFC7510
:1003EB003704D2A9D2AB120057C2A9C2AB12005E1E
:1003FB007538E27539FB753A8A753BFC753704D253
:10040B00A9D2AB120057C2A9C2AB12005E7538E27B
:10041B007539FB753A8A753BFC753704D2A9D2AB9B
:10042B00120057C2A9C2AB12005E7538E27539FBD8
:10043B00753A8A753BFC753704D2A9D2AB120057BB
:10044B00C2A9C2AB12005E7538E27539FB753A8AE8
:10045B00753BFC753704D2A9D2AB120057C2A9C2A7
:10046B00AB12005E7538E27539FB753A8A753BFC49
:10047B00753704D2A9D2AB120057C2A9C2AB120076
:10048B005E7538D07539FA753A40753BFD75370492
:10049B00D2A9D2AB120057C2A9C2AB12005E7538FB
:1004AB00D07539FA753A40753BFD753704D2A9D230
:1004BB00AB120057C2A9C2AB12005E7538D07539AA
:1004CB00FA753A40753BFD753704D2A9D2AB1200D1
:1004DB0057C2A9C2AB12005E7538D07539FA753A9E
:1004EB0040753BFD753704D2A9D2AB120057C2A998
:1004FB00C2AB12005E7538E27539FB753AEA753B93
:10050B00FC753704D2A9D2AB120057C2A9C2AB12E9
:10051B00005E7538617539FB753A40753BFD753773
:10052B0004D2A9D2AB120057C2A9C2AB12005E759E
:10053B0038D07539FA753A68753BFD753704D2A911
:10054B00D2AB120057C2A9C2AB12005E7538DC7574
:10055B0039FF753704D2A9120057C2A912005E7574
:10056B00381D7539FC753A8A753BFC753704D2A971
:10057B00D2AB120057C2A9C2AB12005E7538DC7544
:10058B0039FF753704D2A9120057C2A912005E7544
:10059B0038D07539FA753A68753BFD753704D2A9B1
:1005AB00D2AB120057C2A9C2AB12005E7538DC7514
:1005BB0039FF753708D2A9120057C2A912005E7510
:1005CB0038F17539FD753704D2A9120057C2A9123B
:1005DB00005E7538B07539FD753704D2A912005716
:1005EB00C2A912005E7538DC7539FF753704D2A9C4
:1005FB00120057C2A912005E7538687539FD753740
:10060B0004D2A9120057C2A912005E753840753981
:10061B00FD753704D2A9120057C2A912005E7538B6
:10062B00DC7539FF753704D2A9120057C2A9120025
:10063B005E7538EA7539FC753704D2A9120057C2BA
:10064B00A912005E7538DC7539FF753704D2A91213
:10065B000057C2A912005E75388A7539FC753704CC
:10066B00D2A9120057C2A912005E75388A7539FCDF
:10067B00753704D2A9120057C2A912005E75388AC9
:10068B007539FC753704D2A9120057C2A912005E46
:10069B0075388A7539FC753704D2A9120057C2A96F
:1006AB0012005E7538EA7539FC753704D2A9120051
:1006BB0057C2A912005E75388A7539FC753704D29A
:1006CB00A9120057C2A912005E75381D7539FC7549
:1006DB003704D2A9120057C2A912005E75381D75D6
:1006EB0039FC753704D2A9120057C2A912005E75E6
:1006FB00381D7539FC753704D2A9120057C2A912DF
:10070B00005E75381D7539FC753704D2A912005778
:10071B00C2A912005E75388A7539FC753704D2A9E7
:10072B00120057C2A912005E75381D7539FC75375A
:10073B0004D2A9120057C2A912005E7538E27539AE
:10074B00FB753704D2A9120057C2A912005E753887
:10075B00DC7539FF753704D2A9120057C2A91200F4
:10076B005E7538F17539FD753704D2A9120057C281
:10077B00A912005E7538B07539FD753704D2A91210
:10078B000057C2A912005E7538DC7539FF75370446
:10079B00D2A9120057C2A912005E7538687539FDCF
:1007AB00753704D2A9120057C2A912005E753840E2
:1007BB007539FD753704D2A9120057C2A912005E14
:1007CB007538DC7539FF753704D2A9120057C2A9E9
:1007DB0012005E7538EA7539FC753704D2A9120020
:1007EB0057C2A912005E7538DC7539FF753704D214
:1007FB00A9120057C2A912005E75388A7539FC75AB
:10080B003704D2A9120057C2A912005E75388A7537
:10081B0039FC753704D2A9120057C2A912005E75B4
:10082B00388A7539FC753704D2A9120057C2A91240
:10083B00005E75388A7539FC753704D2A9120057DA
:10084B00C2A912005E7538EA7539FC753704D2A956
:10085B00120057C2A912005E75388A7539FC7537BC
:10086B0004D2A9120057C2A912005E75384075391F
:10087B00FD753704D2A9120057C2A912005E753854
:10088B00407539FD753704D2A9120057C2A9120061
:10089B005E7538407539FD753704D2A9120057C201
:1008AB00A912005E7538407539FD753704D2A9124F
:1008BB000057C2A912005E7538407539FD753704B3
:1008CB00D2A9120057C2A912005E7538407539FDC6
:1008DB00753704D2A9120057C2A912005E7538EA07
:1008EB007539FC753704D2A9120057C2A912005EE4
:1008FB007538407539FD753704D2A9120057C2A956
:10090B0012005E7538687539FD753704D2A912006F
:10091B0057C2A912005E7538DC7539FF753708D2DE
:10092B00A9120057C2A912005E22D2277B18753874
:10093B00617539FB753701D2A9120057C2A9120094
:10094B005E7538E27539FB753A86753BED75370880
:10095B00D2A9D2AB120057C2A9C2AB12005E753836
:10096B00617539FB753A86753BED753704D2A9D2A3
:10097B00AB120057C2A9C2AB12005E7538D57539E0
:10098B00F9753A86753BED75370CD2A9D2AB1200CF
:10099B0057C2A9C2AB12005E75383B7539F8753A70
:1009AB0086753BED753708D2A9D2AB120057C2A999
:1009BB00C2AB12005E7538617539FB753A28753B11
:1009CB00F2753701D2A9D2AB120057C2A9C2AB1232
:1009DB00005E7538E27539FB753A28753BF2753751
:1009EB0008D2A9D2AB120057C2A9C2AB12005E75D6
:1009FB0038617539FB753A28753BF2753704D2A906
:100A0B00D2AB120057C2A9C2AB12005E7538D575B6
:100A1B0039F9753A28753BF275370CD2A9D2AB125E
:100A2B000057C2A9C2AB12005E75383B7539F87519
:100A3B003A28753BF2753708D2A9D2AB120057C2D0
:100A4B00A9C2AB12005E75382E7539FA753A5C7512
:100A5B003BF4753701D2A9D2AB120057C2A9C2AB76
:100A6B0012005E7538D07539FA753A5C753BF475C2
:100A7B003708D2A9D2AB120057C2A9C2AB12005E83
:100A8B0075382E7539FA753A5C753BF4753704D2A7
:100A9B00A9D2AB120057C2A9C2AB12005E75383B8C
:100AAB007539F8753A5C753BF475370CD2A9D2AB36
:100ABB00120057C2A9C2AB12005E7538C37539F666
:100ACB00753A5C753BF4753708D2A9D2AB12005757
:100ADB00C2A9C2AB12005E75382E7539FA753A5C35
:100AEB00753BF4753701D2A9D2AB120057C2A9C21C
:100AFB00AB12005E7538D07539FA753A5C753BF4FC
:100B0B00753708D2A9D2AB120057C2A9C2AB1200DB
:100B1B005E75382E7539FA753A5C753BF47537048A
:100B2B00D2A9D2AB120057C2A9C2AB12005E753864
:100B3B003B7539F8753A5C753BF475370CD2A9D215
:100B4B00AB120057C2A9C2AB12005E7538C3753920
:100B5B00F6753A5C753BF4753708D2A9D2AB120027
:100B6B0057C2A9C2AB12005E7538AB7539F3753A33
:100B7B00D5753BF9753701D2A9D2AB120057C2A973
:100B8B00C2AB12005E7538AB7539F3753A2E753BF7
:100B9B00FA753708D2A9D2AB120057C2A9C2AB1251
:100BAB00005E7538AB7539F3753AD5753BF975370A
:100BBB0004D2A9D2AB120057C2A9C2AB12005E7508
:100BCB0038AB7539F3753A3B753BF875370CD2A9D1
:100BDB00D2AB120057C2A9C2AB12005E7538AB750F
:100BEB0039F3753AC3753BF6753708D2A9D2AB12F8
:100BFB000057C2A9C2AB12005E7538AB7539F375DD
:100C0B003A5C753BF4753718D2A9D2AB120057C2B8
:100C1B00A9C2AB12005E7538AB7539F3753ADC754A
:100C2B003BFF753708D2A9D2AB120057C2A9C2AB92
:100C3B0012005E7538AB7539F3753AAB753BF375CE
:100C4B003701D2A9D2AB120057C2A9C2AB12005EB8
:100C5B007538AB7539F3753A5C753BF4753701D262
:100C6B00A9D2AB120057C2A9C2AB12005E7538AB4A
:100C7B007539F3753AAB753BF3753708D2A9D2AB1F
:100C8B00120057C2A9C2AB12005E7538AB7539F3AF
:100C9B00753A5C753BF4753708D2A9D2AB12005785
:100CAB00C2A9C2AB12005E7538AB7539F3753AA1A8
:100CBB00753BF5753708D2A9D2AB120057C2A9C242
:100CCB00AB12005E7538AB7539F3753AC3753BF6ED
:100CDB00753708D2A9D2AB120057C2A9C2AB12000A
:100CEB005E7538AB7539F3753AC5753BF7753708D3
:100CFB00D2A9D2AB120057C2A9C2AB12005E753893
:100D0B00AB7539F3753A3B753BF8753708D2A9D2F9
:100D1B00AB120057C2A9C2AB12005E7538AB753966
:100D2B00F3753A14753BF9753708D2A9D2AB12009B
:100D3B0057C2A9C2AB12005E7538AB7539F3753A61
:100D4B00D5753BF9753708D2A9D2AB120057C2A99A
:100D5B00C2AB12005E22C2277B0F7538567539E77E
:100D6B00753704D2A9120057C2A912005E7538ABB1
:100D7B007539F3753704D2A9120057C2A912005E58
:100D8B007538A17539F5753704D2A9120057C2A968
:100D9B0012005E7538867539ED753AC3753BF6757D
:100DAB003708D2A9D2AB120057C2A9C2AB12005E50
:100DBB007538C37539F6753708D2A9120057C2A911
:100DCB0012005E7538867539ED753708D2A9120099
:100DDB0057C2A912005E7538C37539F6753704D240
:100DEB00A9120057C2A912005E7538C57539F7757F
:100DFB003704D2A9120057C2A912005E75383B7591
:100E0B0039F8753AB9753BE8753708D2A9D2AB12E8
:100E1B000057C2A9C2AB12005E75383B7539F87525
:100E2B003708D2A9120057C2A912005E7538B975DE
:100E3B0039E8753708D2A9120057C2A912005E759E
:100E4B00383B7539F8753704D2A9120057C2A9126D
:100E5B00005E7538147539F9753704D2A91200572D
:100E6B00C2A912005E7538C57539F7753A56753BD0
:100E7B00E7753708D2A9D2AB120057C2A9C2AB1281
:100E8B00005E7538C57539F7753708D2A91200574A
:100E9B00C2A912005E7538567539E7753708D2A9A5
:100EAB00120057C2A912005E7538C37539F6753733
:100EBB0004D2A9120057C2A912005E7538A1753968
:100ECB00F5753704D2A9120057C2A912005E753806
:100EDB00A17539F5753A86753BED753704D2A9D2F4
:100EEB00AB120057C2A9C2AB12005E7538C375397D
:100EFB00F6753710D2A9120057C2A912005E7538C9
:100F0B00867539ED753704D2A9120057C2A91200A4
:100F1B005E7538AB7539F3753704D2A9120057C219
:100F2B00A912005E7538A17539F5753708D2A9126B
:100F3B000057C2A912005E7538B97539E8753AC306
:100F4B00753BF6753708D2A9D2AB120057C2A9C2AE
:100F5B00AB12005E7538C37539F6753708D2A91216
:100F6B000057C2A912005E7538B97539E875370894
:100F7B00D2A9120057C2A912005E7538C37539F693
:100F8B00753704D2A9120057C2A912005E7538C575
:100F9B007539F7753704D2A9120057C2A912005E32
:100FAB0075383B7539F8753AED753BE0753708D2F6
:100FBB00A9D2AB120057C2A9C2AB12005E75383B67
:100FCB007539F8753708D2A9120057C2A912005EFD
:100FDB007538ED7539E0753708D2A9120057C2A9DB
:100FEB0012005E75383B7539F8753704D2A91200BB
:100FFB0057C2A912005E7538147539F9753704D2CA
:10100B00A9120057C2A912005E7538C57539F7755C
:10101B003A43753BEB753708D2A9D2AB120057C2D6
:10102B00A9C2AB12005E7538C57539F7753708D292
:10103B00A9120057C2A912005E7538437539EB75BA
:10104B003708D2A9120057C2A912005E7538C375B2
:10105B0039F6753704D2A9120057C2A912005E7572
:10106B0038A17539F5753704D2A9120057C2A912E8
:10107B00005E7538C37539F6753A86753BED753775
:10108B000CD2A9D2AB120057C2A9C2AB12005E752B
:10109B00380C7539DB753704D2A9120057C2A91267
:1010AB00005E75380C7539DB753704D2A912005701
:1010BB00C2A912005E7538AB7539F3753704D2A926
:1010CB00120057C2A912005E7538A17539F5753734
:1010DB0004D2A9120057C2A912005E753886753961
:1010EB00ED753AC3753BF6753708D2A9D2AB120032
:1010FB0057C2A9C2AB12005E7538C37539F6753786
:10110B0008D2A9120057C2A912005E75388675392C
:10111B00ED753708D2A9120057C2A912005E7538B7
:10112B00C37539F6753704D2A9120057C2A912003C
:10113B005E7538C57539F7753704D2A9120057C2D9
:10114B00A912005E7538147539F9753AB9753BE813
:10115B00753708D2A9D2AB120057C2A9C2AB120085
:10116B005E7538147539F9753708D2A9120057C254
:10117B00A912005E7538B97539E8753708D2A9120E
:10118B000057C2A912005E7538147539F97537040A
:10119B00D2A9120057C2A912005E7538D57539F95C
:1011AB00753704D2A9120057C2A912005E75382EEA
:1011BB007539FA753A51753BE4753708D2A9D2AB3C
:1011CB00120057C2A9C2AB12005E75382E7539FAE0
:1011DB00753708D2A9120057C2A912005E75385193
:1011EB007539E4753708D2A9120057C2A912005EEF
:1011FB007538D57539F9753704D2A9120057C2A9BC
:10120B0012005E7538147539F9753704D2A91200BE
:10121B0057C2A912005E7538D57539F9753A8675BE
:10122B003BED753704D2A9D2AB120057C2A9C2ABA2
:10123B0012005E7538C37539F6753708D2A91200DE
:10124B0057C2A912005E7538867539ED753708D20D
:10125B00A9120057C2A912005E7538C37539F6750D
:10126B003704D2A9120057C2A912005E7538C57592
:10127B0039F7753704D2A9120057C2A912005E754F
:10128B00383B7539F8753AB9753BE8753708D2A90B
:10129B00D2AB120057C2A9C2AB12005E75383B75B8
:1012AB0039F8753708D2A9120057C2A912005E751A
:1012BB0038B97539E8753708D2A9120057C2A91287
:1012CB00005E7538147539F9753708D2A9120057B5
:1012DB00C2A912005E7538D57539F9753A86753B1A
:1012EB00ED753704D2A9D2AB120057C2A9C2AB120B
:1012FB00005E7538C37539F6753708D2A9120057D9
:10130B00C2A912005E7538567539E7753708D2A930
:10131B00120057C2A912005E7538C37539F67537BE
:10132B0004D2A9120057C2A912005E75383B753959
:10133B00F8753704D2A9120057C2A912005E75388E
:10134B00C57539F7753A56753BE7753708D2A9D28B
:10135B00AB120057C2A9C2AB12005E7538C5753906
:10136B00F7753708D2A9120057C2A912005E75385B
:10137B00567539E7753708D2A9120057C2A9120062
:10138B005E75383B7539F8753704D2A9120057C210
:10139B00A912005E7538C37539F6753704D2A912D8
:1013AB000057C2A912005E7538C57539F7753A56E4
:1013BB00753BE7753708D2A9D2AB120057C2A9C249
:1013CB00AB12005E7538567539E7753704D2A91222
:1013DB000057C2A912005E2202156B0214A9021457
:1013EB00BA0213FCC0F9A4B0999282F88090FF0C5A
:1013FB0008C0D0C0E0C083C082C2CF0536E536B48A
:10140B006451753600E5302401D4F530B46026758F
:10141B003000E5312401D4F531B46019753100E5A4
:10142B00322401D4F532B41206E53D6401F53DB426
:10143B001303753201E53C5401F53CE53D5401B510
:10144B003C11E532B5350CE531B53407E530B53334
:10145B0002D22820293F9013FAE53D540193F591D0
:10146B009013EFE530540F93F593E530C4540F937D
:10147B00F594E531540F93F58EE531C4540F93F584
:10148B008FE532540F93F596E53220E40274A0C435
:10149B00540F93F597D082D083D0E0D0D032302840
:1014AB000DB28085398C85388A20F902C2283230FA
:1014BB00280DB281853B8D853A8B20F902C22832EB
:1014CB00C0D0C0E0C083C0829013FAE53D540193B5
:1014DB00F5919013EFE530540F93F593E530C45429
:1014EB000F93F594E531540F93F58EE531C4540FFA
:1014FB0093F58FE532540F93F596E53220E40274A1
:10150B00A0C4540F93F597D082D083D0E0D0D022D3
:10151B00C0D0C0E0C083C0829013FAE53C54019365
:10152B00F5919013EFE533540F93F593E533C454D2
:10153B000F93F594E534540F93F58EE534C4540FA3
:10154B0093F58FE535540F93F596E53520E402744A
:10155B00A0C4540F93F597D082D083D0E0D0D02283
:10156B0075817F75E800759500759E0075F800759F
:10157B009A03D280C284758911C28CC28DD28CC25F
:10158B00A9C28EC28FD28EC2AB75C800C2CAC2CFDF
:10159B0075CB9375CA7FD2CAD2AD7530557531599B
:1015AB00753211753D017533007534007535127543
:1015BB003600753C00C228C229D2AF30FA1C30FB72
:1015CB00113028F7D2F8120075C228C2F8C2A9024E
:1015DB0015C6D2291216680215C61215EB0215C6CE
:1015EB0030FAFDC2AD759E0330FA2220F9F730F9BF
:1015FB00FDE5322401D4F532B41206E53D6401F564
:10160B003DB413037532011214CB0215F030FAFD01
:10161B00759E0075953030FA1920F9F430F9FDE517
:10162B00312401D4F531B460037531001214CB02AF
:10163B00161B30FAFD75950330FA1920F9F730F9BE
:10164B00FDE5302401D4F530B4600375300012147D
:10165B00CB02164030FAFDD2AD7595002212151B48
:10166B0030FBFD759E0330FB2220F9F730F9FDE5C9
:10167B00352401D4F535B41206E53C6401F53CB4D0
:10168B00130375350112151B02166E30FBFD759E8B
:10169B000075953030FB1920F9F430F9FDE5342451
:1016AB0001D4F534B4600375340012151B0216997E
:1016BB0030FBFD75950330FB1920F9F730F9FDE58B
:1016CB00332401D4F533B4600375330012151B02B8
:0B16DB0016BE30FBFD759500C22922F1
:00000001FF
