:10000000020121407924301912027800107A3B79DC
:10001000FB78FA0000308D030BC28DD8F6D9F2DAE6
:10002000EE22120043D28C12000DC28C858A2385E9
:100030008C248B2512004F22C28C74F05589440504
:10004000F58922120038C28C758A00758C0022C096
:10005000E0C0D0C000E47D18752600752700752823
:1000600000752900E525A2E7E52333F523E52433D0
:10007000F524E52533F525E5263526D4F526E527AF
:100080003527D4F527E5283528D4F528E52935295D
:10009000D4F529DDCFD000D0D0D0E022C21E747FAD
:1000A000F591F592F593F594F58EF58FF596F59714
:1000B000900003E529C4540F7003301E05D21E932F
:1000C000F597E529540F7003301E05D21E93F5965F
:1000D000E528C4540F7003301E05D21E93F58FE53A
:1000E00028540F7003301E05D21E93F58EE527C4E9
:1000F000540F7003301E05D21E93F594E527540F5C
:100100007003301E05D21E93F593E526C4540F707C
:1001100003301E05D21E93F592E526540F93F591F8
:100120002275817FE4F5E8F595F59EF5F812002239
:0801300012009CE4FB02012D0A
:00000001FF
