:1000000002034A7804C3E53433F534E53533F53576
:10001000E53633F536D8EEEF4534F534E536540F92
:10002000F53622781E794A7AFADAFED9FAD8F6221B
:10003000ACE8AD95ED5403FDEC4D6029120023E5CD
:10004000E8C39C7020E595C39D701A7F10C3EC3304
:10005000FCED33FD4004DFF5800B1FD3E5E870FCB9
:10006000E59570FC22C32220F9FD30F9FD2240798C
:10007000243019120278001090006EE536540F9368
:10008000F58EE535C4540F93F594E535540F93F58B
:1000900093E534C4540F93F592E534540F93F591DE
:1000A000227B047A5A79FA78FAD8FED9FADAF6DBA2
:1000B000F222C0F9A4B0999282F880908883C6A1F8
:1000C000868E9000B2E534540F93F591E534C45414
:1000D0000F93F592E535540F93F593E535C4540F1E
:0B00E00093F594E536540F93F58E2243
:1000EB00C0E0C0D0C000E4F534F535F5367810E546
:1000FB0031A2E7E53033F530E53133F531E5343511
:10010B0034D4F534E5353535D4F535E5363536D4D7
:10011B00F536D8DBD000D0D0D0E02213C0D030E7FA
:10012B000224D030E30224FDD0D022C0E0C0D0C0E6
:10013B0000C034C035C0367810C3E536120126F541
:10014B0036E535120126F535E534120126F534E591
:10015B003113F531E53013F530D8DED036D035D04C
:10016B0034D000D0D0D0E022C0E0C0D0E530253272
:10017B00F530E5313533F531D0D0D0E022C0E0C0D9
:10018B00D0C3E5309532F530E5319533F531D0D02C
:10019B00D0E022C0E0C0D0C3E5309532E5319533D5
:1001AB009200D0D0D0E022C0E0C0D0C3E532953071
:1001BB00E53395319200D0D0D0E022C0E0C0D0C260
:1001CB0000C3E53295307008E53395317002D200EB
:1001DB00D0D0D0E0221201C62000030201B22212BD
:1001EB0001C620000302019E22C0E0C0F0C0D0C0B7
:1001FB0000C001E5308532F0A4F8A9F0E531853275
:10020B00F0A429F9E435F0FAE5308533F0A429F9A7
:10021B0089318830D001D000D0D0D0F0D0E022C0CE
:10022B00E0C0F0C0D0C000C001C002C00378807A2B
:10023B00087B00EB48FBF5F0A4C39530F9E5F0958E
:10024B003149600D50028004E8F45BFBE803F8DAF7
:10025B00E28B30753100D003D002D001D000D0D06A
:10026B00D0F0D0E022C0E0C0D0C000C001C0027A04
:10027B0010E4F8F9C3E53033F530E53133F531E807
:10028B0033F8E933F9C3E89532E99533400BE89538
:10029B0032F8E99533F9433001DAD9D002D001D0E5
:1002AB0000D0D0D0E02285303285313322E530C505
:1002BB0032F530E531C533F53122E59E5402700D30
:1002CB00E59E5401701730FB2430FA3122120325BE
:1002DB001201F41200EB12007812031822120325FC
:1002EB001202701200EB120078120318221203256F
:1002FB001201731200EB120078120318221203255D
:10030B001201881200EB12007812031822753000CC
:10031B00753100753200753300221201361202B8A6
:10032B001200EB120078C312003030F90B50F812A8
:10033B0000031200C20203321201361202B82275F8
:10034B00817FE4F5E8F595F59EF5F87597197596A7
:10035B0019758F12758E0075947975937975922432
:10036B007591241200A175977F75967F758F7FF518
:10037B0034F535F53675300075310075320075334F
:10038B00001200781200301202C550F8120003124E
:05039B0000C202038F07
:00000001FF
