:030000000202BA3F
:10002B0002022E000000130026003900520065006A
:10003B007800910104011601290142015501680163
:10004B008101940207022002330246025902720216
:10005B0085029803110324033603490362037503D6
:10006B00880401041404270440045304660479042F
:10007B0092050505180531054405560569058205E8
:10008B0095060806210634064706600673068606A3
:10009B009907120725073807510764077607890860
:1000AB0002081508280841085408670880089309B6
:1000BB00060919093209450958097109840996106D
:1000CB00091022103510481061107410871100119F
:1000DB001311261139115211651178119112041255
:1000EB001612291242125512681281129413071319
:1000FB0020133313461359137213851398141114C9
:10010B00241436144914621475148815011514152A
:10011B0027154015531566157915921605161816E1
:10012B00311644165616691682169517081721179D
:10013B003417471760177317861799181218251855
:10014B0038185118641876188919021915192819B5
:10015B004119541967198019932006201920322050
:10016B0045205820712084209621092122213521F8
:10017B004821612174218722002213222622392251
:10018B00522265227822912304231623292342230A
:10019B0055236823812394240724202433244624C5
:1001AB005924722485249825112524253625492583
:1001BB0062257525882601261426272640265326D8
:1001CB006626792692270527182731274427562795
:1001DB006927822795280828212834284728602852
:1001EB007328862899291229252938295129642908
:1001FB007629893002301530283041305430673041
:10020B0080309331063119313231453158317131EA
:10021B0084319632093222323532483261327432AD
:10022B00873300C0D0C0E0C2CF0535E535B402300E
:10023B007535000534C3E5303531F531E532340021
:10024B00F532E534B41019753404C3E53213F532C5
:10025B00E53113F531D534F2B2E885313375310020
:10026B00D0E0D0D032790A786FD8FED9FA22C0F913
:10027B00A4B0999282F880908883C6A1868E900252
:10028B0079E536540F93F591E536C4540F93F592F7
:10029B00E537540F93F593E537C4540F93F5942238
:1002AB0090002EE53393F536E5330493F53722753D
:1002BB00817F75E800759500759E0075F800759D3A
:1002CB00FF7B00759A0075C800C2CAC2CF75CB26DA
:1002DB0075CAFDD2CAD2ADD2AF1202EF1202AB1267
:1002EB00028980F575B00075F800D2B71202703034
:1002FB009202C2B7D2B6120270309202C2B6D2B517
:10030B00120270309202C2B5D2B412027030920255
:10031B00C2B4D2B3120270309202C2B3D2B2120282
:10032B0070309202C2B2D2B1120270309202C2B1DC
:10033B00D2B0120270309202C2B012027085B0F8C5
:10034B0012027012027012027085B0302275B0006A
:10035B0075E800D2B7120270309302C2B7D2B61250
:10036B000270309302C2B6D2B5120270309302C241
:10037B00B5D2B4120270309302C2B4D2B31202706F
:10038B00309302C2B3D2B2120270309302C2B2D215
:10039B00B1120270309302C2B1D2B012027030931C
:1003AB0002C2B012027085B0E81202701202701213
:0303BB00027022AB
:00000001FF
